{
  "address": "0xe7f1725E7734CE288F8367e1Bb143E90bb3F0512",
  "abi": [
    {
      "inputs": [
        {
          "internalType": "address",
          "name": "s_priceFeedAddress",
          "type": "address"
        }
      ],
      "stateMutability": "nonpayable",
      "type": "constructor"
    },
    {
      "inputs": [],
      "name": "FundMe__NotOwner",
      "type": "error"
    },
    {
      "stateMutability": "payable",
      "type": "fallback"
    },
    {
      "inputs": [],
      "name": "MINIMUM_USD",
      "outputs": [
        {
          "internalType": "uint256",
          "name": "",
          "type": "uint256"
        }
      ],
      "stateMutability": "view",
      "type": "function"
    },
    {
      "inputs": [],
      "name": "cheaperWithdraw",
      "outputs": [],
      "stateMutability": "payable",
      "type": "function"
    },
    {
      "inputs": [],
      "name": "fund",
      "outputs": [],
      "stateMutability": "payable",
      "type": "function"
    },
    {
      "inputs": [],
      "name": "i_owner",
      "outputs": [
        {
          "internalType": "address",
          "name": "",
          "type": "address"
        }
      ],
      "stateMutability": "view",
      "type": "function"
    },
    {
      "inputs": [
        {
          "internalType": "address",
          "name": "",
          "type": "address"
        }
      ],
      "name": "s_addressToAmountFunded",
      "outputs": [
        {
          "internalType": "uint256",
          "name": "",
          "type": "uint256"
        }
      ],
      "stateMutability": "view",
      "type": "function"
    },
    {
      "inputs": [
        {
          "internalType": "uint256",
          "name": "",
          "type": "uint256"
        }
      ],
      "name": "s_funders",
      "outputs": [
        {
          "internalType": "address",
          "name": "",
          "type": "address"
        }
      ],
      "stateMutability": "view",
      "type": "function"
    },
    {
      "inputs": [],
      "name": "s_priceFeed",
      "outputs": [
        {
          "internalType": "contract AggregatorV3Interface",
          "name": "",
          "type": "address"
        }
      ],
      "stateMutability": "view",
      "type": "function"
    },
    {
      "inputs": [],
      "name": "withdraw",
      "outputs": [],
      "stateMutability": "nonpayable",
      "type": "function"
    },
    {
      "stateMutability": "payable",
      "type": "receive"
    }
  ],
  "transactionHash": "0x2d598f80a59fb0e3dfb056cbafb2c1b4542f438b0473afc587996c3fe9824695",
  "args": [
    "0x5FbDB2315678afecb367f032d93F642f64180aa3"
  ],
  "numDeployments": 1,
  "solcInputHash": "b6f89f5ee983302cbe038ef08fe2ee45",
  "bytecode": "0x60a060405264012a05f2006002553480156200001a57600080fd5b506040516200138f3803806200138f83398181016040528101906200004091906200027d565b620000876040518060400160405280600d81526020017f6e657720616464726573733a2000000000000000000000000000000000000000815250826200010360201b60201c565b3373ffffffffffffffffffffffffffffffffffffffff1660808173ffffffffffffffffffffffffffffffffffffffff168152505080600360006101000a81548173ffffffffffffffffffffffffffffffffffffffff021916908373ffffffffffffffffffffffffffffffffffffffff16021790555050620003bd565b620001a582826040516024016200011c9291906200035a565b6040516020818303038152906040527f319af333000000000000000000000000000000000000000000000000000000007bffffffffffffffffffffffffffffffffffffffffffffffffffffffff19166020820180517bffffffffffffffffffffffffffffffffffffffffffffffffffffffff8381831617835250505050620001a960201b60201c565b5050565b620001cf81620001ca620001d260201b6200079017620001f360201b60201c565b60201c565b50565b60006a636f6e736f6c652e6c6f679050600080835160208501845afa505050565b6200020760201b6200087e17819050919050565b620002116200038e565b565b600080fd5b600073ffffffffffffffffffffffffffffffffffffffff82169050919050565b6000620002458262000218565b9050919050565b620002578162000238565b81146200026357600080fd5b50565b60008151905062000277816200024c565b92915050565b60006020828403121562000296576200029562000213565b5b6000620002a68482850162000266565b91505092915050565b600081519050919050565b600082825260208201905092915050565b60005b83811015620002eb578082015181840152602081019050620002ce565b60008484015250505050565b6000601f19601f8301169050919050565b60006200031582620002af565b620003218185620002ba565b935062000333818560208601620002cb565b6200033e81620002f7565b840191505092915050565b620003548162000238565b82525050565b6000604082019050818103600083015262000376818562000308565b905062000387602083018462000349565b9392505050565b7f4e487b7100000000000000000000000000000000000000000000000000000000600052605160045260246000fd5b608051610faf620003e060003960008181610530015261076e0152610faf6000f3fe60806040526004361061007f5760003560e01c80636b69a5921161004e5780636b69a59214610154578063b60d42881461017f578063be2693f014610189578063dba6335f146101935761008e565b80630ec3b027146100985780631bf6132d146100c35780633ccfd60b1461010057806354861af7146101175761008e565b3661008e5761008c6101be565b005b6100966101be565b005b3480156100a457600080fd5b506100ad6102f0565b6040516100ba91906109ae565b60405180910390f35b3480156100cf57600080fd5b506100ea60048036038101906100e59190610a0c565b610316565b6040516100f79190610a52565b60405180910390f35b34801561010c57600080fd5b5061011561032e565b005b34801561012357600080fd5b5061013e60048036038101906101399190610a99565b6104e9565b60405161014b9190610ad5565b60405180910390f35b34801561016057600080fd5b50610169610528565b6040516101769190610a52565b60405180910390f35b6101876101be565b005b61019161052e565b005b34801561019f57600080fd5b506101a861076c565b6040516101b59190610ad5565b60405180910390f35b6002546101f6600360009054906101000a900473ffffffffffffffffffffffffffffffffffffffff16346107b190919063ffffffff16565b11610236576040517f08c379a000000000000000000000000000000000000000000000000000000000815260040161022d90610b4d565b60405180910390fd5b346000803373ffffffffffffffffffffffffffffffffffffffff1673ffffffffffffffffffffffffffffffffffffffff16815260200190815260200160002060008282546102849190610b9c565b925050819055506001339080600181540180825580915050600190039060005260206000200160009091909190916101000a81548173ffffffffffffffffffffffffffffffffffffffff021916908373ffffffffffffffffffffffffffffffffffffffff160217905550565b600360009054906101000a900473ffffffffffffffffffffffffffffffffffffffff1681565b60006020528060005260406000206000915090505481565b60005b6001805490508110156103d95760006001828154811061035457610353610bd0565b5b9060005260206000200160009054906101000a900473ffffffffffffffffffffffffffffffffffffffff16905060008060008373ffffffffffffffffffffffffffffffffffffffff1673ffffffffffffffffffffffffffffffffffffffff168152602001908152602001600020819055505080806103d190610bff565b915050610331565b50600067ffffffffffffffff8111156103f5576103f4610c47565b5b6040519080825280602002602001820160405280156104235781602001602082028036833780820191505090505b5060019080519060200190610439929190610888565b5060003373ffffffffffffffffffffffffffffffffffffffff164760405161046090610ca7565b60006040518083038185875af1925050503d806000811461049d576040519150601f19603f3d011682016040523d82523d6000602084013e6104a2565b606091505b50509050806104e6576040517f08c379a00000000000000000000000000000000000000000000000000000000081526004016104dd90610d08565b60405180910390fd5b50565b600181815481106104f957600080fd5b906000526020600020016000915054906101000a900473ffffffffffffffffffffffffffffffffffffffff1681565b60025481565b7f000000000000000000000000000000000000000000000000000000000000000073ffffffffffffffffffffffffffffffffffffffff163373ffffffffffffffffffffffffffffffffffffffff16146105b3576040517f579610db00000000000000000000000000000000000000000000000000000000815260040160405180910390fd5b3373ffffffffffffffffffffffffffffffffffffffff166108fc479081150290604051600060405180830381858888f193505050501580156105f9573d6000803e3d6000fd5b506000600180548060200260200160405190810160405280929190818152602001828054801561067e57602002820191906000526020600020905b8160009054906101000a900473ffffffffffffffffffffffffffffffffffffffff1673ffffffffffffffffffffffffffffffffffffffff1681526020019060010190808311610634575b5050505050905060005b81518110156107085760008282815181106106a6576106a5610bd0565b5b6020026020010151905060008060008373ffffffffffffffffffffffffffffffffffffffff1673ffffffffffffffffffffffffffffffffffffffff1681526020019081526020016000208190555050808061070090610bff565b915050610688565b50600067ffffffffffffffff81111561072457610723610c47565b5b6040519080825280602002602001820160405280156107525781602001602082028036833780820191505090505b5060019080519060200190610768929190610888565b5050565b7f000000000000000000000000000000000000000000000000000000000000000081565b60006a636f6e736f6c652e6c6f679050600080835160208501845afa505050565b6000806107bd836107ed565b90506000670de0b6b3a764000085836107d69190610d28565b6107e09190610d99565b9050809250505092915050565b6000808273ffffffffffffffffffffffffffffffffffffffff1663feaf968c6040518163ffffffff1660e01b815260040160a060405180830381865afa15801561083b573d6000803e3d6000fd5b505050506040513d601f19601f8201168201806040525081019061085f9190610e57565b5050509150506402540be400816108769190610ed2565b915050919050565b610886610f4a565b565b828054828255906000526020600020908101928215610901579160200282015b828111156109005782518260006101000a81548173ffffffffffffffffffffffffffffffffffffffff021916908373ffffffffffffffffffffffffffffffffffffffff160217905550916020019190600101906108a8565b5b50905061090e9190610912565b5090565b5b8082111561092b576000816000905550600101610913565b5090565b600073ffffffffffffffffffffffffffffffffffffffff82169050919050565b6000819050919050565b600061097461096f61096a8461092f565b61094f565b61092f565b9050919050565b600061098682610959565b9050919050565b60006109988261097b565b9050919050565b6109a88161098d565b82525050565b60006020820190506109c3600083018461099f565b92915050565b600080fd5b60006109d98261092f565b9050919050565b6109e9816109ce565b81146109f457600080fd5b50565b600081359050610a06816109e0565b92915050565b600060208284031215610a2257610a216109c9565b5b6000610a30848285016109f7565b91505092915050565b6000819050919050565b610a4c81610a39565b82525050565b6000602082019050610a676000830184610a43565b92915050565b610a7681610a39565b8114610a8157600080fd5b50565b600081359050610a9381610a6d565b92915050565b600060208284031215610aaf57610aae6109c9565b5b6000610abd84828501610a84565b91505092915050565b610acf816109ce565b82525050565b6000602082019050610aea6000830184610ac6565b92915050565b600082825260208201905092915050565b7f596f75206e65656420746f207370656e64206d6f726520455448210000000000600082015250565b6000610b37601b83610af0565b9150610b4282610b01565b602082019050919050565b60006020820190508181036000830152610b6681610b2a565b9050919050565b7f4e487b7100000000000000000000000000000000000000000000000000000000600052601160045260246000fd5b6000610ba782610a39565b9150610bb283610a39565b9250828201905080821115610bca57610bc9610b6d565b5b92915050565b7f4e487b7100000000000000000000000000000000000000000000000000000000600052603260045260246000fd5b6000610c0a82610a39565b91507fffffffffffffffffffffffffffffffffffffffffffffffffffffffffffffffff8203610c3c57610c3b610b6d565b5b600182019050919050565b7f4e487b7100000000000000000000000000000000000000000000000000000000600052604160045260246000fd5b600081905092915050565b50565b6000610c91600083610c76565b9150610c9c82610c81565b600082019050919050565b6000610cb282610c84565b9150819050919050565b7f43616c6c206661696c6564000000000000000000000000000000000000000000600082015250565b6000610cf2600b83610af0565b9150610cfd82610cbc565b602082019050919050565b60006020820190508181036000830152610d2181610ce5565b9050919050565b6000610d3382610a39565b9150610d3e83610a39565b9250828202610d4c81610a39565b91508282048414831517610d6357610d62610b6d565b5b5092915050565b7f4e487b7100000000000000000000000000000000000000000000000000000000600052601260045260246000fd5b6000610da482610a39565b9150610daf83610a39565b925082610dbf57610dbe610d6a565b5b828204905092915050565b600069ffffffffffffffffffff82169050919050565b610de981610dca565b8114610df457600080fd5b50565b600081519050610e0681610de0565b92915050565b6000819050919050565b610e1f81610e0c565b8114610e2a57600080fd5b50565b600081519050610e3c81610e16565b92915050565b600081519050610e5181610a6d565b92915050565b600080600080600060a08688031215610e7357610e726109c9565b5b6000610e8188828901610df7565b9550506020610e9288828901610e2d565b9450506040610ea388828901610e42565b9350506060610eb488828901610e42565b9250506080610ec588828901610df7565b9150509295509295909350565b6000610edd82610e0c565b9150610ee883610e0c565b9250828202610ef681610e0c565b91507f80000000000000000000000000000000000000000000000000000000000000008414600084121615610f2e57610f2d610b6d565b5b8282058414831517610f4357610f42610b6d565b5b5092915050565b7f4e487b7100000000000000000000000000000000000000000000000000000000600052605160045260246000fdfea2646970667358221220cc6f0d8238400c40a4311502b62aac1283fa18cb7e92700f4fd14e1352a2b57e64736f6c63430008130033",
  "devdoc": {
    "author": "Patrick Collin",
    "details": "This implements price feeds as our library",
    "kind": "dev",
    "methods": {},
    "title": "A contact for crodw funding",
    "version": 1
  },
  "userdoc": {
    "kind": "user",
    "methods": {
      "constructor": {
        "notice": "constructor receive function (if exists) fallback function (if exists) external public internal private"
      }
    },
    "notice": "This contact is to demo a simple funding contract",
    "version": 1
  },
  "storageLayout": {
    "storage": [
      {
        "astId": 60,
        "contract": "contracts/FundMe.sol:FundMe",
        "label": "s_addressToAmountFunded",
        "offset": 0,
        "slot": "0",
        "type": "t_mapping(t_address,t_uint256)"
      },
      {
        "astId": 63,
        "contract": "contracts/FundMe.sol:FundMe",
        "label": "s_funders",
        "offset": 0,
        "slot": "1",
        "type": "t_array(t_address)dyn_storage"
      },
      {
        "astId": 70,
        "contract": "contracts/FundMe.sol:FundMe",
        "label": "MINIMUM_USD",
        "offset": 0,
        "slot": "2",
        "type": "t_uint256"
      },
      {
        "astId": 73,
        "contract": "contracts/FundMe.sol:FundMe",
        "label": "s_priceFeed",
        "offset": 0,
        "slot": "3",
        "type": "t_contract(AggregatorV3Interface)45"
      }
    ],
    "types": {
      "t_address": {
        "encoding": "inplace",
        "label": "address",
        "numberOfBytes": "20"
      },
      "t_array(t_address)dyn_storage": {
        "base": "t_address",
        "encoding": "dynamic_array",
        "label": "address[]",
        "numberOfBytes": "32"
      },
      "t_contract(AggregatorV3Interface)45": {
        "encoding": "inplace",
        "label": "contract AggregatorV3Interface",
        "numberOfBytes": "20"
      },
      "t_mapping(t_address,t_uint256)": {
        "encoding": "mapping",
        "key": "t_address",
        "label": "mapping(address => uint256)",
        "numberOfBytes": "32",
        "value": "t_uint256"
      },
      "t_uint256": {
        "encoding": "inplace",
        "label": "uint256",
        "numberOfBytes": "32"
      }
    }
  }
}